:0400000079EF00F0A4
:10001800D8CF03F0E8CF04F0E0CF05F0FACF06F030
:10002800FBCF07F0E9CF08F0EACF09F0E1CF0AF0FB
:10003800E2CF0BF0D9CF0CF0DACF0DF0F3CF0EF002
:10004800F4CF0FF0F6CF10F0F7CF11F0F8CF12F091
:10005800F5CF13F0F2AA01D001D024D0F2A401D038
:1000680001D020D0F2943E0E156E800E146E14C08E
:1000780001F015C002F0011E021E014A022AFF0EFD
:100088000124146EFF0E0220156E1550D76E14C091
:10009800D6FF010E4126000E4222000E4322000E1A
:1000A800442200D013C0F5FF12C0F8FF11C0F7FFBB
:1000B80010C0F6FF0FC0F4FF0EC0F3FF0DC0DAFF4B
:1000C8000CC0D9FF0BC0E2FF0AC0E1FF09C0EAFF7C
:1000D80008C0E9FF07C0FBFF06C0FAFF05C0E0FF44
:1000E80004C0E8FF03C0D8FF1000B3EF06F0FB0E12
:1000F800F66E1F0EF76E0800F5CF16F013EC06F03B
:100108000001746F00017405D8A401D001D02AD071
:100118004A6601D001D026D00001746F050E4A6EE0
:1001280000017451DEEC06F016C045F017C046F029
:1001380018C047F019C048F0FC0EF66E1F0EF76E97
:100148000800F5CF16F00001746F000E176E00015D
:100158007451B3EC04F0010E1C6E000E1B6E51ECD2
:1001680006F000D0FB0EF66E1F0EF76E0800F5CFF6
:1001780016F013EC06F00009D8A401D001D02AD05B
:100188004A6601D001D026D00001746F020E4A6E73
:1001980000017451DEEC06F016C045F017C046F0B9
:1001A80018C047F019C048F0FC0EF66E1F0EF76E27
:1001B8000800F5CF16F00001746F000E176E0001ED
:1001C8007451B3EC04F00001746F630E496E0001C2
:1001D800745100D0FB0EF66E1F0EF76E0800F5CFB7
:1001E80016F013EC06F00001746F00017405D8A432
:1001F80001D001D022D04A50050AD8B401D001D08C
:100208001CD00001746F050E4A6E00017451010E76
:100218001C6E000E1B6E51EC06F0FC0EF66E1F0EE7
:10022800F76E0800F5CF16F00001746F000E176E18
:1002380000017451B3EC04F000D0FB0EF66E1F0EF3
:10024800F76E0800F5CF16F013EC06F00009D8A4F5
:1002580001D001D02CD04A50050AD8A401D001D031
:1002680026D00001746F020E4A6E0001745100011D
:10027800746F630E496E00017451DEEC06F016C00F
:1002880045F017C046F018C047F019C048F0FC0EFA
:10029800F66E1F0EF76E0800F5CF16F00001746FAA
:1002A800000E176E00017451B3EC04F000D0FD0E7F
:1002B800F66E1F0EF76E0800F5CF16F013EC06F079
:1002C8000009D8A401D001D016D04A04D8A401D07E
:1002D80001D011D00001746F030E4A6E00017451F1
:1002E800DEEC06F016C045F017C046F018C047F01F
:1002F80019C048F000D0FD0EF66E1F0EF76E08000C
:10030800F5CF16F013EC06F00001746F00017405C8
:10031800D8A401D001D00DD04A50030AD8A401D0E6
:1003280001D007D00001746F010E4A6E00017451AC
:1003380000D04A50020AD8A401D001D063D045C0E9
:1003480074F046C075F047C076F048C077F00001F9
:10035800741F751F761F771F742B000E7523762365
:100368007723DEEC06F00001745116240001786F43
:100378000001755117200001796F0001765118208E
:1003880000017A6F00017751192000017B6FFB0E85
:100398000001785D000E7959000E7A59000E0001AF
:1003A8007B59D8A001D001D028D0DEEC06F016C0C9
:1003B80045F017C046F018C047F019C048F0490684
:1003C80049505F0AD8A401D001D017D0FC0EF66EB0
:1003D8001F0EF76E0800F5CF16F00001746F010EBE
:1003E800176E00017451B3EC04F00001746F010E34
:1003F8004A6E0001745101D000D049C021F0CDEC03
:1004080005F000D04A50030AD8A401D001D07FD00B
:1004180045C074F046C075F047C076F048C077F024
:100428000001741F751F761F771F742B000E75232C
:1004380076237723DEEC06F00001745116240001C0
:10044800786F0001755117200001796F000176510E
:10045800182000017A6F00017751192000017B6F85
:10046800430E0001785D000E7959000E7A59000E8E
:1004780000017B59D8A001D001D044D0FA0EF66E05
:100488001F0EF76E0800F5CF16F00001746F010E0D
:10049800176E00017451B3EC04F0DEEC06F016C0E0
:1004A80045F017C046F018C047F019C048F0490693
:1004B800496601D001D016D0FC0EF66E1F0EF76EFD
:1004C8000800F5CF16F00001746F000E176E0001DA
:1004D8007451B3EC04F00001746F040E4A6E00010D
:1004E800745100D0FA0EF66E1F0EF76E0800F5CFA5
:1004F80016F00001746F000E176E00017451B3EC12
:1005080004F000D049C021F0CDEC05F000D0120075
:10051800150E166401D001D095D19FD19ED192D1EC
:100528001650090D060EF326000EF422340EF3249D
:10053800F66E1F0EF420F76E0800F5CF18F0010EC6
:10054800196E182A02D0D8901936182EFCD71650D2
:10055800090D340EF324F66E1F0EF420F76E090011
:10056800F5CFD9FF0900F5CFDAFF1950DF1675D19D
:100578001650090D060EF326000EF422340EF3244D
:10058800F66E1F0EF420F76E0800F5CF18F0010E76
:10059800196E182A02D0D8901936182EFCD7165082
:1005A800090D340EF324F66E1F0EF420F76E0900C1
:1005B800F5CFD9FF0900F5CFDAFF1950DF12165031
:1005C800090D070EF326000EF422340EF324F66EFE
:1005D8001F0EF420F76E0800F5CF18F018BE01D0F2
:1005E80001D04CD01650090D070EF326000EF42248
:1005F800340EF324F66E1F0EF420F76E0800F55043
:10060800800A780FD8B001D001D01BD01650090D40
:10061800070EF326000EF422340EF324F66E1F0E96
:10062800F420F76E0800F5CF18F0010E196E182A9D
:1006380002D0D8901936182EFCD71950FF0A7E160A
:100648001DD01650090D070EF326000EF422340EA5
:10065800F324F66E1F0EF420F76E0800F5CF18F09D
:10066800F80E1826010E196E182A02D0D8901936DD
:10067800182EFCD71950FF0A7F1600D01650090D06
:10068800080EF326000EF422340EF324F66E1F0E25
:10069800F420F76E0800F5CF18F018BE01D001D08D
:1006A800DCD01650090D080EF326000EF422340E85
:1006B800F324F66E1F0EF420F76E0800F5CF18F03D
:1006C800010E196E182A02D0D8901936182EFCD7A8
:1006D80019507C12C2D0C1D01650090D060EF3264F
:1006E800000EF422340EF324F66E1F0EF420F76E7B
:1006F8000800F5CF18F0010E196E182A02D0D8900C
:100708001936182EFCD71650090D340EF324F66E40
:100718001F0EF420F76E0900F5CFD9FF0900F5CFB9
:10072800DAFF1950DF121650090D070EF326000ED6
:10073800F422340EF324F66E1F0EF420F76E080030
:10074800F5CF18F018BE01D001D04CD01650090DC5
:10075800070EF326000EF422340EF324F66E1F0E55
:10076800F420F76E0800F550800A780FD8B001D051
:1007780001D01BD01650090D070EF326000EF422E7
:10078800340EF324F66E1F0EF420F76E0800F5CF32
:1007980018F0010E196E182A02D0D8901936182EA2
:1007A800FCD71950FF0A7E161DD01650090D070EEA
:1007B800F326000EF422340EF324F66E1F0EF420F6
:1007C800F76E0800F5CF18F0F80E1826010E196E0E
:1007D800182A02D0D8901936182EFCD71950FF0ABB
:1007E8007F1600D01650090D080EF326000EF422CD
:1007F800340EF324F66E1F0EF420F76E0800F5CFC2
:1008080018F018BE01D001D028D01650090D080ED6
:10081800F326000EF422340EF324F66E1F0EF42095
:10082800F76E0800F5CF18F0010E196E182A02D0DD
:10083800D8901936182EFCD71950FF0A7C160DD0FF
:100848000CD00BD01750000AD8B46AD6010AD8B415
:1008580043D7030AD8B48CD600D01200000E00018A
:100868000001756F070E0001746F000100017551DA
:10087800800A800F160ED8B4745DD8A001D001D0BC
:1008880002D01AD019D074C016F02C6E000E176E54
:100898002C508CEC02F000010001744B752B000108
:1008A80000017551800A800F160ED8B4745DD8A067
:1008B80001D001D0E8D700D0FD0EF66E1F0EF76EFE
:1008C8000800F5CF16F02C6E020E176E2C508CEC2B
:1008D80002F0FB0EF66E1F0EF76E0800F5CF16F04D
:1008E8002C6E020E176E2C508CEC02F0FA0EF66E7F
:1008F8001F0EF76E0800F5CF16F02C6E000E176E5F
:100908002C508CEC02F0FC0EF66E1F0EF76E0800F1
:10091800F5CF16F02C6E000E176E2C508CEC02F0F2
:10092800FA0EF66E1F0EF76E0800F5CF16F02C6E55
:10093800000E176E2C50B3EC04F0FC0EF66E1F0E72
:10094800F76E0800F5CF16F02C6E000E176E2C50BF
:10095800B3EC04F049C021F0CDEC05F01200150EFF
:10096800166401D001D002D061D060D01750D8B43D
:1009780001D001D02CD01650090D060EF326000E1A
:10098800F422340EF324F66E1F0EF420F76E0800DE
:10099800F5CF18F0010E196E182A02D0D890193622
:1009A800182EFCD71650090D040EF326000EF4225B
:1009B800340EF324F66E1F0EF420F76E0900F5CFFF
:1009C800D9FF0900F5CFDAFF1950DF122FD01650E2
:1009D800090D060EF326000EF422340EF324F66EEB
:1009E8001F0EF420F76E0800F5CF18F0010E196EEF
:1009F800182A02D0D8901936182EFCD71950FF0A99
:100A08001A6E1650090D040EF326000EF422340E49
:100A1800F324F66E1F0EF420F76E0900F5CFD9FF08
:100A28000900F5CFDAFF1A50DF1600D012001A6E4F
:100A3800000E1C6E1A5019AE01D001D009D0186CE6
:100A4800191ED8B0192A1A6E010E1C6E1A5000D041
:100A580017AE01D001D007D0166C171ED8B0172AD0
:100A6800010E1C1A00D0000E1E6E000E1D6E1950CD
:100A78001810D8B401D001D028D01A6E010E1B6E00
:100A88001A5005D0D890183619361B2A00D019AE3E
:100A980001D001D0F7D701D000D0D8901D361E362E
:100AA8001850165C19501758D8A001D001D006D09C
:100AB8001850165E1950175A1D8000D0D890193258
:100AC80018321B2EEAD701D000D01C50D8B401D060
:100AD80001D005D01D6C1E1ED8B01E2A00D01DC026
:100AE80016F01EC017F000D012001A6E000E1C6E11
:100AF8001A5017AE01D001D009D0166C171ED8B005
:100B0800172A1A6E010E1C6E1A5000D019AE01D0A9
:100B180001D005D0186C191ED8B0192A00D0195068
:100B28001810D8B401D001D024D01A6E010E1B6E53
:100B38001A5005D0D890183619361B2A00D019AE8D
:100B480001D001D0F7D701D000D01850165C195049
:100B58001758D8A001D001D005D01850165E1950EA
:100B6800175A00D0D890193218321B2EEED701D060
:100B780000D01C50D8B401D001D005D0166C171E77
:100B8800D8B0172A00D016C016F017C017F000D03A
:100B98001200630E216401D001D002D03FD03ED0B4
:100BA80021C016F0176A000E196E0A0E186E79EC3D
:100BB80005F0D8901634226E1734236E0001600EAB
:100BC8002224D96E0001000E2320DA6EDECF24F035
:100BD800DDCF25F021C016F0176A000E196E0A0E37
:100BE800186E1BEC05F0D8901634266E1734276E55
:100BF8002D0E2624D96E000E2720DA6EDECF28F0BF
:100C0800DDCF29F0245028102A6E255029102B6E8C
:100C18002AC01BF02BC01CF051EC06F01200150E78
:100C2800166401D001D003D0000E36D035D016504E
:100C3800090D020EF326000EF422340EF324F66E8C
:100C48001F0EF420F76E0900F5CFD9FF0900F5CF84
:100C5800DAFFDF50176E1650090D060EF326000E48
:100C6800F422340EF324F66E1F0EF420F76E0800FB
:100C7800F5CF18F0010E196E182A02D0D89019363F
:100C8800182EFCD7195017140009D8A401D002D087
:100C9800010E01D0000E00D012001D6E000E206E55
:100CA8001D500F0E206401D001D002D026D025D0CF
:100CB8002050060F166E20C01DF0010E1E6E1F6A12
:100CC8001D2A03D0D8901E361F361D2EFBD71B5069
:100CD8001E161C501F161F501E10D8A401D002D07B
:100CE800010E01D0000E176EB3EC04F0202A0F0E8F
:100CF800206401D001D0DCD700D01200D388D38A79
:100D0800D38C00D0D3A401D001D0FCD79B8CD59C28
:100D1800D59AD5863E0E196E800E186E18C016F03C
:100D280019C017F0161E171E164A172AFF0E16248A
:100D3800186EFF0E1720196E1950D76E18C0D6FFFF
:100D4800F294F28AF28CF28ED58EF19E000E7C6EB1
:100D5800000E896E000E8A6E000E8B6E120000EE79
:100D680041F00A0EEE6AE806FDE10C0EF66E0E0E74
:100D7800F76E000EF86E00EE60F010EE14F0090049
:100D8800F5CFEEFFE550E150FAE1F80EF66E0D0EE4
:100D9800F76E000EF86E00EE2DF010EE14F009005C
:100DA800F5CFEEFFE550E150FAE1000EF86E0001D4
:100DB800F1EF06F0F29A41C01AF042C01BF043C0AE
:100DC8001CF044C01DF0F28A1AC016F01BC017F0C0
:100DD8001CC018F01DC019F0120082EC06F032ECAD
:100DE80004F000D07BEC00F0FDD7FCD779EF00F0E1
:100DF80007B004100370067004D006E007E004B0E2
:100E080007F006F0B00E80027006E006C00AE00C9B
:080E1800F00C800EF00EE00E5C
:101F3400930F810F8A0F07FF07930F810F8A0F06F4
:101F4400FF06930F810F8A0F000C00930F810F8AF5
:101F54000F010A01920F800F890F0000FF920F807A
:101F64000F890F0101FF940F820F8B0F07FFFF945E
:101F74000F820F8B0F06FFFF940F820F8B0F05FF4D
:101F8400FF940F820F8B0F04FFFF940F820F8B0FB0
:101F940003FFFF940F820F8B0F02FFFF940F820F3A
:101FA4008B0F01FFFF940F820F8B0F00FFFF920F27
:101FB400800F890F0504FF920F800F890F04FFFF24
:101FC400920F800F890F0303FF920F800F890F0276
:101FD40002FF930F810F8A0F05FFFF930F810F8A72
:101FE4000F040BFF930F810F8A0F0309FF930F81D7
:0C1FF4000F8A0F0208FF04010500000026
:020000040020DA
:08000000FFFFFFFFFFFFFFFF00
:020000040030CA
:0E000000FF08191EFF8B81FF0FC00FE00F409D
:00000001FF
