:0400000079EF00F0A4
:10001800D8CF03F0E8CF04F0E0CF05F0FACF06F030
:10002800FBCF07F0E9CF08F0EACF09F0E1CF0AF0FB
:10003800E2CF0BF0D9CF0CF0DACF0DF0F3CF0EF002
:10004800F4CF0FF0F6CF10F0F7CF11F0F8CF12F091
:10005800F5CF13F0F2AA01D001D024D0F2A401D038
:1000680001D020D0F2943E0E156E800E146E14C08E
:1000780001F015C002F0011E021E014A022AFF0EFD
:100088000124146EFF0E0220156E1550D76E14C091
:10009800D6FF010E4126000E4222000E4322000E1A
:1000A800442200D013C0F5FF12C0F8FF11C0F7FFBB
:1000B80010C0F6FF0FC0F4FF0EC0F3FF0DC0DAFF4B
:1000C8000CC0D9FF0BC0E2FF0AC0E1FF09C0EAFF7C
:1000D80008C0E9FF07C0FBFF06C0FAFF05C0E0FF44
:1000E80004C0E8FF03C0D8FF1000C5EF06F0360EC5
:1000F800F66E1F0EF76E0800F5CF16F01FEC06F02F
:100108000001746F00017405D8A401D001D02AD071
:100118004A6601D001D026D00001746F050E4A6EE0
:1001280000017451F0EC06F016C045F017C046F017
:1001380018C047F019C048F0370EF66E1F0EF76E5C
:100148000800F5CF16F00001746F000E176E00015D
:100158007451B9EC04F0010E1C6E000E1B6E63ECBA
:1001680006F000D0360EF66E1F0EF76E0800F5CFBB
:1001780016F01FEC06F00009D8A401D001D02AD04F
:100188004A6601D001D026D00001746F020E4A6E73
:1001980000017451F0EC06F016C045F017C046F0A7
:1001A80018C047F019C048F0370EF66E1F0EF76EEC
:1001B8000800F5CF16F00001746F000E176E0001ED
:1001C8007451B9EC04F00001746F630E496E0001BC
:1001D800745100D0360EF66E1F0EF76E0800F5CF7C
:1001E80016F01FEC06F00001746F00017405D8A426
:1001F80001D001D022D04A50050AD8B401D001D08C
:100208001CD00001746F050E4A6E00017451010E76
:100218001C6E000E1B6E63EC06F0370EF66E1F0E9A
:10022800F76E0800F5CF16F00001746F000E176E18
:1002380000017451B9EC04F000D0360EF66E1F0EB2
:10024800F76E0800F5CF16F01FEC06F00009D8A4E9
:1002580001D001D02CD04A50050AD8A401D001D031
:1002680026D00001746F020E4A6E0001745100011D
:10027800746F630E496E00017451F0EC06F016C0FD
:1002880045F017C046F018C047F019C048F0370EBF
:10029800F66E1F0EF76E0800F5CF16F00001746FAA
:1002A800000E176E00017451B9EC04F000D0380E3E
:1002B800F66E1F0EF76E0800F5CF16F01FEC06F06D
:1002C8000009D8A401D001D016D04A04D8A401D07E
:1002D80001D011D00001746F030E4A6E00017451F1
:1002E800F0EC06F016C045F017C046F018C047F00D
:1002F80019C048F000D0380EF66E1F0EF76E0800D1
:10030800F5CF16F01FEC06F00001746F00017405BC
:10031800D8A401D001D00DD04A50030AD8A401D0E6
:1003280001D007D00001746F010E4A6E00017451AC
:1003380000D04A50020AD8A401D001D063D045C0E9
:1003480074F046C075F047C076F048C077F00001F9
:10035800741F751F761F771F742B000E7523762365
:100368007723F0EC06F00001745116240001786F31
:100378000001755117200001796F0001765118208E
:1003880000017A6F00017751192000017B6FFB0E85
:100398000001785D000E7959000E7A59000E0001AF
:1003A8007B59D8A001D001D028D0F0EC06F016C0B7
:1003B80045F017C046F018C047F019C048F0490684
:1003C80049505F0AD8A401D001D017D0370EF66E75
:1003D8001F0EF76E0800F5CF16F00001746F010EBE
:1003E800176E00017451B9EC04F00001746F010E2E
:1003F8004A6E0001745101D000D049C021F0D9ECF7
:1004080005F000D04A50030AD8A401D001D07FD00B
:1004180045C074F046C075F047C076F048C077F024
:100428000001741F751F761F771F742B000E75232C
:1004380076237723F0EC06F00001745116240001AE
:10044800786F0001755117200001796F000176510E
:10045800182000017A6F00017751192000017B6F85
:10046800430E0001785D000E7959000E7A59000E8E
:1004780000017B59D8A001D001D044D0350EF66ECA
:100488001F0EF76E0800F5CF16F00001746F010E0D
:10049800176E00017451B9EC04F0F0EC06F016C0C8
:1004A80045F017C046F018C047F019C048F0490693
:1004B800496601D001D016D0370EF66E1F0EF76EC2
:1004C8000800F5CF16F00001746F000E176E0001DA
:1004D8007451B9EC04F00001746F040E4A6E000107
:1004E800745100D0350EF66E1F0EF76E0800F5CF6A
:1004F80016F00001746F000E176E00017451B9EC0C
:1005080004F000D049C021F0D9EC05F000D0120069
:10051800340EF66E1F0EF76E0800F550165CD8A064
:1005280001D001D095D19FD19ED192D11650090DFD
:10053800060EF326000EF422390EF324F66E1F0E73
:10054800F420F76E0800F5CF18F0010E196E182A7E
:1005580002D0D8901936182EFCD71650090D390E2E
:10056800F324F66E1F0EF420F76E0900F5CFD9FFBD
:100578000900F5CFDAFF1950DF1675D11650090DAD
:10058800060EF326000EF422390EF324F66E1F0E23
:10059800F420F76E0800F5CF18F0010E196E182A2E
:1005A80002D0D8901936182EFCD71650090D390EDE
:1005B800F324F66E1F0EF420F76E0900F5CFD9FF6D
:1005C8000900F5CFDAFF1950DF121650090D070E92
:1005D800F326000EF422390EF324F66E1F0EF420D3
:1005E800F76E0800F5CF18F018BE01D001D04CD036
:1005F8001650090D070EF326000EF422390EF324C7
:10060800F66E1F0EF420F76E0800F550800A780F7A
:10061800D8B001D001D01BD01650090D070EF32613
:10062800000EF422390EF324F66E1F0EF420F76E36
:100638000800F5CF18F0010E196E182A02D0D890CC
:100648001936182EFCD71950FF0A7E161DD01650E1
:10065800090D070EF326000EF422390EF324F66E68
:100668001F0EF420F76E0800F5CF18F0F80E1826C4
:10067800010E196E182A02D0D8901936182EFCD7F8
:100688001950FF0A7F1600D01650090D080EF326E0
:10069800000EF422390EF324F66E1F0EF420F76EC6
:1006A8000800F5CF18F018BE01D001D0DCD01650E4
:1006B800090D080EF326000EF422390EF324F66E07
:1006C8001F0EF420F76E0800F5CF18F0010E196E12
:1006D800182A02D0D8901936182EFCD719507C1237
:1006E800C2D0C1D01650090D060EF326000EF42212
:1006F800390EF324F66E1F0EF420F76E0800F5CFBE
:1007080018F0010E196E182A02D0D8901936182E32
:10071800FCD71650090D390EF324F66E1F0EF4207F
:10072800F76E0900F5CFD9FF0900F5CFDAFF1950A8
:10073800DF121650090D070EF326000EF422390EAB
:10074800F324F66E1F0EF420F76E0800F5CF18F0AC
:1007580018BE01D001D04CD01650090D070EF32653
:10076800000EF422390EF324F66E1F0EF420F76EF5
:100778000800F550800A780FD8B001D001D01BD0FE
:100788001650090D070EF326000EF422390EF32435
:10079800F66E1F0EF420F76E0800F5CF18F0010E64
:1007A800196E182A02D0D8901936182EFCD719506D
:1007B800FF0A7E161DD01650090D070EF326000EEF
:1007C800F422390EF324F66E1F0EF420F76E08009B
:1007D800F5CF18F0F80E1826010E196E182A02D057
:1007E800D8901936182EFCD71950FF0A7F1600D05A
:1007F8001650090D080EF326000EF422390EF324C4
:10080800F66E1F0EF420F76E0800F5CF18F018BE2C
:1008180001D001D028D01650090D080EF326000E7D
:10082800F422390EF324F66E1F0EF420F76E08003A
:10083800F5CF18F0010E196E182A02D0D890193683
:10084800182EFCD71950FF0A7C160DD00CD00BD0EF
:100858001750000AD8B46AD6010AD8B443D7030A95
:10086800D8B48CD600D01200000E00010001756FBC
:10087800070E0001746F000100017551800A800F96
:10088800160ED8B4745DD8A001D001D002D01AD009
:1008980019D074C016F02C6E000E176E2C508CEC0C
:1008A80002F000010001744B752B00010001755125
:1008B800800A800F160ED8B4745DD8A001D001D07C
:1008C800E8D700D0380EF66E1F0EF76E0800F5CF89
:1008D80016F02C6E020E176E2C508CEC02F0360EB1
:1008E800F66E1F0EF76E0800F5CF16F02C6E020E8E
:1008F800176E2C508CEC02F0350EF66E1F0EF76E4C
:100908000800F5CF16F02C6E000E176E2C508CECEC
:1009180002F0370EF66E1F0EF76E0800F5CF16F0D0
:100928002C6E000E176E2C508CEC02F0350EF66E05
:100938001F0EF76E0800F5CF16F02C6E000E176E1E
:100948002C50B9EC04F0370EF66E1F0EF76E080047
:10095800F5CF16F02C6E000E176E2C50B9EC04F083
:1009680049C021F0D9EC05F01200340EF66E1F0EC6
:10097800F76E0800F550165CD8A001D001D002D05F
:1009880061D060D01750D8B401D001D02CD0165007
:10099800090D060EF326000EF422390EF324F66E26
:1009A8001F0EF420F76E0800F5CF18F0010E196E2F
:1009B800182A02D0D8901936182EFCD71650090DCF
:1009C800040EF326000EF422390EF324F66E1F0EE1
:1009D800F420F76E0900F5CFD9FF0900F5CFDAFF4B
:1009E8001950DF122FD01650090D060EF326000EEF
:1009F800F422390EF324F66E1F0EF420F76E080069
:100A0800F5CF18F0010E196E182A02D0D8901936B1
:100A1800182EFCD71950FF0A1A6E1650090D040E2D
:100A2800F326000EF422390EF324F66E1F0EF4207E
:100A3800F76E0900F5CFD9FF0900F5CFDAFF1A5094
:100A4800DF1600D012001A6E000E1C6E1A5019AE76
:100A580001D001D009D0186C191ED8B0192A1A6E05
:100A6800010E1C6E1A5000D017AE01D001D007D06D
:100A7800166C171ED8B0172A010E1C1A00D0000ECB
:100A88001E6E000E1D6E19501810D8B401D001D07A
:100A980028D01A6E010E1B6E1A5005D0D890183641
:100AA80019361B2A00D019AE01D001D0F7D701D0D2
:100AB80000D0D8901D361E361850165C195017589D
:100AC800D8A001D001D006D01850165E1950175A78
:100AD8001D8000D0D890193218321B2EEAD701D0C9
:100AE80000D01C50D8B401D001D005D01D6C1E1EFA
:100AF800D8B01E2A00D01DC016F01EC017F000D0B6
:100B080012001A6E000E1C6E1A5017AE01D001D0DA
:100B180009D0166C171ED8B0172A1A6E010E1C6E53
:100B28001A5000D019AE01D001D005D0186C191E8A
:100B3800D8B0192A00D019501810D8B401D001D053
:100B480024D01A6E010E1B6E1A5005D0D890183694
:100B580019361B2A00D019AE01D001D0F7D701D021
:100B680000D01850165C19501758D8A001D001D0E1
:100B780005D01850165E1950175A00D0D89019325F
:100B880018321B2EEED701D000D01C50D8B401D09B
:100B980001D005D0166C171ED8B0172A00D016C081
:100BA80016F017C017F000D01200630E216401D0B0
:100BB80001D002D03FD03ED021C016F0176A000EF7
:100BC800196E0A0E186E85EC05F0D8901634226E50
:100BD8001734236E0001600E2224D96E0001000E26
:100BE8002320DA6EDECF24F0DDCF25F021C016F009
:100BF800176A000E196E0A0E186E27EC05F0D890C9
:100C08001634266E1734276E2D0E2624D96E000E44
:100C18002720DA6EDECF28F0DDCF29F02450281007
:100C28002A6E255029102B6E2AC01BF02BC01CF0F1
:100C380063EC06F01200340EF66E1F0EF76E080015
:100C4800F550165CD8A001D001D003D0000E36D0E4
:100C580035D01650090D020EF326000EF422390E77
:100C6800F324F66E1F0EF420F76E0900F5CFD9FFB6
:100C78000900F5CFDAFFDF50176E1650090D060E82
:100C8800F326000EF422390EF324F66E1F0EF4201C
:100C9800F76E0800F5CF18F0010E196E182A02D069
:100CA800D8901936182EFCD7195017140009D8A453
:100CB80001D002D0010E01D0000E00D012001D6E2E
:100CC800000E206E1D500F0E206401D001D002D0FE
:100CD80026D025D02050060F166E20C01DF0010E1C
:100CE8001E6E1F6A1D2A03D0D8901E361F361D2E71
:100CF800FBD71B501E161C501F161F501E10D8A4C1
:100D080001D002D0010E01D0000E176EB9EC04F02C
:100D1800202A0F0E206401D001D0DCD700D01200A9
:100D2800D388D38AD38C00D0D3A401D001D0FCD7E8
:100D38009B8CD59CD59AD5863E0E196E800E186E62
:100D480018C016F019C017F0161E171E164A172AD3
:100D5800FF0E1624186EFF0E1720196E1950D76E45
:100D680018C0D6FFF294F28AF28CF28ED58EF19EDC
:100D7800000E7C6E000E896E000E8A6E000E8B6E61
:100D8800120000EE41F00A0EEE6AE806FDE1300EB0
:100D9800F66E0E0EF76E000EF86E00EE60F010EEB6
:100DA80014F00900F5CFEEFFE550E150FAE11C0E12
:100DB800F66E0E0EF76E000EF86E00EE2DF010EEC9
:100DC80014F00900F5CFEEFFE550E150FAE1000E0E
:100DD800F86E000103EF07F0F29A41C01AF042C022
:100DE8001BF043C01CF044C01DF0F28A1AC016F074
:100DF8001BC017F01CC018F01DC019F0120094ECAD
:100E080006F038EC04F000D07BEC00F0FDD7FCD7FE
:100E180079EF00F007B004100370067004D006E004
:100E280007E004B007F006F0B00E80027006E00696
:0C0E3800C00AE00CF00C800EF00EE00E82
:101F34001604010500930F810F8A0F07FF07930F03
:101F4400810F8A0F06FF06930F810F8A0F000C0082
:101F5400930F810F8A0F010A01920F800F890F00DE
:101F640000FF920F800F890F0101FF940F820F8BE6
:101F74000F07FFFF940F820F8B0F06FFFF940F8252
:101F84000F8B0F05FFFF940F820F8B0F04FFFF943D
:101F94000F820F8B0F03FFFF940F820F8B0F02FF33
:101FA400FF940F820F8B0F01FFFF940F820F8B0F93
:101FB40000FFFF920F800F890F0504FF920F800F1F
:101FC400890F04FFFF920F800F890F0303FF920F05
:101FD400800F890F0202FF930F810F8A0F05FFFF05
:101FE400930F810F8A0F040BFF930F810F8A0F0346
:0C1FF40009FF930F810F8A0F0208FF0005
:020000040020DA
:08000000FFFFFFFFFFFFFFFF00
:020000040030CA
:0E000000FF08191EFF8B81FF0FC00FE00F409D
:00000001FF
